{
  "contractName": "TaskContract",
  "abi": [
    {
      "inputs": [],
      "stateMutability": "nonpayable",
      "type": "constructor"
    },
    {
      "anonymous": false,
      "inputs": [
        {
          "indexed": false,
          "internalType": "uint256",
          "name": "id",
          "type": "uint256"
        },
        {
          "indexed": false,
          "internalType": "string",
          "name": "title",
          "type": "string"
        },
        {
          "indexed": false,
          "internalType": "string",
          "name": "description",
          "type": "string"
        },
        {
          "indexed": false,
          "internalType": "bool",
          "name": "done",
          "type": "bool"
        },
        {
          "indexed": false,
          "internalType": "uint256",
          "name": "createdAt",
          "type": "uint256"
        }
      ],
      "name": "TaskCreated",
      "type": "event"
    },
    {
      "anonymous": false,
      "inputs": [
        {
          "indexed": false,
          "internalType": "uint256",
          "name": "id",
          "type": "uint256"
        },
        {
          "indexed": false,
          "internalType": "bool",
          "name": "done",
          "type": "bool"
        }
      ],
      "name": "createdDone",
      "type": "event"
    },
    {
      "inputs": [],
      "name": "TaskCounter",
      "outputs": [
        {
          "internalType": "uint256",
          "name": "",
          "type": "uint256"
        }
      ],
      "stateMutability": "view",
      "type": "function",
      "constant": true
    },
    {
      "inputs": [
        {
          "internalType": "uint256",
          "name": "",
          "type": "uint256"
        }
      ],
      "name": "tasks",
      "outputs": [
        {
          "internalType": "uint256",
          "name": "id",
          "type": "uint256"
        },
        {
          "internalType": "string",
          "name": "title",
          "type": "string"
        },
        {
          "internalType": "string",
          "name": "description",
          "type": "string"
        },
        {
          "internalType": "bool",
          "name": "done",
          "type": "bool"
        },
        {
          "internalType": "uint256",
          "name": "createdAt",
          "type": "uint256"
        }
      ],
      "stateMutability": "view",
      "type": "function",
      "constant": true
    },
    {
      "inputs": [
        {
          "internalType": "string",
          "name": "_title",
          "type": "string"
        },
        {
          "internalType": "string",
          "name": "_description",
          "type": "string"
        }
      ],
      "name": "createTask",
      "outputs": [],
      "stateMutability": "nonpayable",
      "type": "function"
    },
    {
      "inputs": [
        {
          "internalType": "uint256",
          "name": "_id",
          "type": "uint256"
        }
      ],
      "name": "toggleDone",
      "outputs": [],
      "stateMutability": "nonpayable",
      "type": "function"
    }
  ],
  "bytecode": "0x6080604052600080553480156200001557600080fd5b50620000926040518060400160405280600481526020017f4a6f7365000000000000000000000000000000000000000000000000000000008152506040518060400160405280600b81526020017f70726f6772616d61646f720000000000000000000000000000000000000000008152506200009860201b60201c565b62000485565b600080815480929190620000ac9062000297565b91905055506040518060a00160405280600054815260200183815260200182815260200160001515815260200142815250600160008054815260200190815260200160002060008201518160000155602082015181600101908051906020019062000119929190620001ae565b50604082015181600201908051906020019062000138929190620001ae565b5060608201518160030160006101000a81548160ff021916908315150217905550608082015181600401559050507f6549102bed7d1bb5ec529ee14e2ca60ffc1f47f66d4cc6ca713220613cc64c256000548383600042604051620001a2959493929190620003b6565b60405180910390a15050565b828054620001bc9062000450565b90600052602060002090601f016020900481019282620001e057600085556200022c565b82601f10620001fb57805160ff19168380011785556200022c565b828001600101855582156200022c579182015b828111156200022b5782518255916020019190600101906200020e565b5b5090506200023b91906200023f565b5090565b5b808211156200025a57600081600090555060010162000240565b5090565b7f4e487b7100000000000000000000000000000000000000000000000000000000600052601160045260246000fd5b6000819050919050565b6000620002a4826200028d565b91507fffffffffffffffffffffffffffffffffffffffffffffffffffffffffffffffff8203620002d957620002d86200025e565b5b600182019050919050565b620002ef816200028d565b82525050565b600081519050919050565b600082825260208201905092915050565b60005b838110156200033157808201518184015260208101905062000314565b8381111562000341576000848401525b50505050565b6000601f19601f8301169050919050565b60006200036582620002f5565b62000371818562000300565b93506200038381856020860162000311565b6200038e8162000347565b840191505092915050565b60008115159050919050565b620003b08162000399565b82525050565b600060a082019050620003cd6000830188620002e4565b8181036020830152620003e1818762000358565b90508181036040830152620003f7818662000358565b9050620004086060830185620003a5565b620004176080830184620002e4565b9695505050505050565b7f4e487b7100000000000000000000000000000000000000000000000000000000600052602260045260246000fd5b600060028204905060018216806200046957607f821691505b6020821081036200047f576200047e62000421565b5b50919050565b610ace80620004956000396000f3fe608060405234801561001057600080fd5b506004361061004c5760003560e01c806306737d9714610051578063292a45851461006f5780638d9776721461008b578063d81ef739146100bf575b600080fd5b6100596100db565b604051610066919061064e565b60405180910390f35b610089600480360381019061008491906107c3565b6100e1565b005b6100a560048036038101906100a09190610867565b6101ef565b6040516100b6959493929190610937565b60405180910390f35b6100d960048036038101906100d49190610867565b610342565b005b60005481565b6000808154809291906100f3906109c7565b91905055506040518060a00160405280600054815260200183815260200182815260200160001515815260200142815250600160008054815260200190815260200160002060008201518160000155602082015181600101908051906020019061015e929190610592565b50604082015181600201908051906020019061017b929190610592565b5060608201518160030160006101000a81548160ff021916908315150217905550608082015181600401559050507f6549102bed7d1bb5ec529ee14e2ca60ffc1f47f66d4cc6ca713220613cc64c2560005483836000426040516101e3959493929190610937565b60405180910390a15050565b600160205280600052604060002060009150905080600001549080600101805461021890610a3e565b80601f016020809104026020016040519081016040528092919081815260200182805461024490610a3e565b80156102915780601f1061026657610100808354040283529160200191610291565b820191906000526020600020905b81548152906001019060200180831161027457829003601f168201915b5050505050908060020180546102a690610a3e565b80601f01602080910402602001604051908101604052809291908181526020018280546102d290610a3e565b801561031f5780601f106102f45761010080835404028352916020019161031f565b820191906000526020600020905b81548152906001019060200180831161030257829003601f168201915b5050505050908060030160009054906101000a900460ff16908060040154905085565b6000600160008381526020019081526020016000206040518060a00160405290816000820154815260200160018201805461037c90610a3e565b80601f01602080910402602001604051908101604052809291908181526020018280546103a890610a3e565b80156103f55780601f106103ca576101008083540402835291602001916103f5565b820191906000526020600020905b8154815290600101906020018083116103d857829003601f168201915b5050505050815260200160028201805461040e90610a3e565b80601f016020809104026020016040519081016040528092919081815260200182805461043a90610a3e565b80156104875780601f1061045c57610100808354040283529160200191610487565b820191906000526020600020905b81548152906001019060200180831161046a57829003601f168201915b505050505081526020016003820160009054906101000a900460ff1615151515815260200160048201548152505090508060600151158160600190151590811515815250508060016000848152602001908152602001600020600082015181600001556020820151816001019080519060200190610506929190610592565b506040820151816002019080519060200190610523929190610592565b5060608201518160030160006101000a81548160ff021916908315150217905550608082015181600401559050507f0efbfcc855ad936e4bebfd0481054fc7dac3e55fc2ff4e52af892785fe299248828260600151604051610586929190610a6f565b60405180910390a15050565b82805461059e90610a3e565b90600052602060002090601f0160209004810192826105c05760008555610607565b82601f106105d957805160ff1916838001178555610607565b82800160010185558215610607579182015b828111156106065782518255916020019190600101906105eb565b5b5090506106149190610618565b5090565b5b80821115610631576000816000905550600101610619565b5090565b6000819050919050565b61064881610635565b82525050565b6000602082019050610663600083018461063f565b92915050565b6000604051905090565b600080fd5b600080fd5b600080fd5b600080fd5b6000601f19601f8301169050919050565b7f4e487b7100000000000000000000000000000000000000000000000000000000600052604160045260246000fd5b6106d082610687565b810181811067ffffffffffffffff821117156106ef576106ee610698565b5b80604052505050565b6000610702610669565b905061070e82826106c7565b919050565b600067ffffffffffffffff82111561072e5761072d610698565b5b61073782610687565b9050602081019050919050565b82818337600083830152505050565b600061076661076184610713565b6106f8565b90508281526020810184848401111561078257610781610682565b5b61078d848285610744565b509392505050565b600082601f8301126107aa576107a961067d565b5b81356107ba848260208601610753565b91505092915050565b600080604083850312156107da576107d9610673565b5b600083013567ffffffffffffffff8111156107f8576107f7610678565b5b61080485828601610795565b925050602083013567ffffffffffffffff81111561082557610824610678565b5b61083185828601610795565b9150509250929050565b61084481610635565b811461084f57600080fd5b50565b6000813590506108618161083b565b92915050565b60006020828403121561087d5761087c610673565b5b600061088b84828501610852565b91505092915050565b600081519050919050565b600082825260208201905092915050565b60005b838110156108ce5780820151818401526020810190506108b3565b838111156108dd576000848401525b50505050565b60006108ee82610894565b6108f8818561089f565b93506109088185602086016108b0565b61091181610687565b840191505092915050565b60008115159050919050565b6109318161091c565b82525050565b600060a08201905061094c600083018861063f565b818103602083015261095e81876108e3565b9050818103604083015261097281866108e3565b90506109816060830185610928565b61098e608083018461063f565b9695505050505050565b7f4e487b7100000000000000000000000000000000000000000000000000000000600052601160045260246000fd5b60006109d282610635565b91507fffffffffffffffffffffffffffffffffffffffffffffffffffffffffffffffff8203610a0457610a03610998565b5b600182019050919050565b7f4e487b7100000000000000000000000000000000000000000000000000000000600052602260045260246000fd5b60006002820490506001821680610a5657607f821691505b602082108103610a6957610a68610a0f565b5b50919050565b6000604082019050610a84600083018561063f565b610a916020830184610928565b939250505056fea264697066735822122049f9b015d4050b61e869643cf91718559b1a04dea2a7f0559f63d45bcefe7e3664736f6c634300080d0033",
  "immutableReferences": {},
  "source": "// SPDX-License-Identifier: MIT\r\npragma solidity ^0.8.13;\r\n\r\n// Crecion del Smart Contract (TaskContract -> nombre Opcional)\r\ncontract TaskContract {\r\n\r\n    uint256 public TaskCounter = 0;\r\n\r\n    // Vamos a crear una tarea \r\n\r\n    constructor (){\r\n        createTask(\"Jose\", \"programador\");\r\n    }\r\n\r\n    // event -> retorno de algun objeto, de una tarea ya creada\r\n\r\n    event TaskCreated (\r\n        uint256 id,\r\n        string title,\r\n        string description,\r\n        bool done,\r\n        uint256 createdAt\r\n    );\r\n\r\n    event createdDone(\r\n        uint256 id,\r\n        bool done\r\n    );\r\n\r\n\r\n\r\n\r\n    // Declaracion de Varibles\r\n    struct Task {\r\n        uint256 id;\r\n        string title;\r\n        string description;\r\n        bool done;\r\n        uint256 createdAt;\r\n    }\r\n\r\n    // Declaracion de conjunto de Datos, que tienen un par clave valor-> Solo se puede retornar un valor a la vez\r\n\r\n    mapping (uint256 => Task ) public tasks;\r\n    /*\r\n    Ejemplo [\r\n        0:{},\r\n        1:{},\r\n        2:{}\r\n    ]\r\n    */\r\n\r\n    // Vamos a crear funciones que interactuen con los datos \r\n    // string memory _title -> strinb - tipo | memory - regla | title - variable \r\n\r\n    // Crear Tarea \r\n    \r\n    function createTask(string memory _title, string memory _description)public{\r\n        //  block.timestamp -> retorna el tiempo de creacion \r\n        TaskCounter++;\r\n        tasks[TaskCounter] = Task(TaskCounter, _title, _description, false, block.timestamp);\r\n        // vamos  devolver lo creado\r\n        emit TaskCreated(TaskCounter, _title, _description, false, block.timestamp);\r\n\r\n    }\r\n\r\n    // Funciona para actualizar los datos \r\n\r\n    function toggleDone(uint _id) public {\r\n        Task memory _task = tasks[_id];\r\n        _task.done =! _task.done;\r\n        tasks[_id] = _task;\r\n        emit createdDone(_id,_task.done);\r\n    }\r\n\r\n \r\n\r\n\r\n}",
  "sourcePath": "D:\\ProyectoBlockChain\\Test_Solidity\\contracts\\TaskContract.sol",
  "compiler": {
    "name": "solc",
    "version": "0.8.13+commit.abaa5c0e.Emscripten.clang"
  },
  "schemaVersion": "3.4.11",
  "updatedAt": "2023-02-13T01:17:16.148Z",
  "networkType": "ethereum",
  "devdoc": {
    "kind": "dev",
    "methods": {},
    "version": 1
  },
  "userdoc": {
    "kind": "user",
    "methods": {},
    "version": 1
  }
}